{"abi":[{"type":"constructor","inputs":[{"name":"_asset","type":"address","internalType":"contract IERC20"}],"stateMutability":"nonpayable"},{"type":"function","name":"allowance","inputs":[{"name":"owner","type":"address","internalType":"address"},{"name":"spender","type":"address","internalType":"address"}],"outputs":[{"name":"","type":"uint256","internalType":"uint256"}],"stateMutability":"view"},{"type":"function","name":"approve","inputs":[{"name":"spender","type":"address","internalType":"address"},{"name":"value","type":"uint256","internalType":"uint256"}],"outputs":[{"name":"","type":"bool","internalType":"bool"}],"stateMutability":"nonpayable"},{"type":"function","name":"asset","inputs":[],"outputs":[{"name":"","type":"address","internalType":"address"}],"stateMutability":"view"},{"type":"function","name":"balanceOf","inputs":[{"name":"account","type":"address","internalType":"address"}],"outputs":[{"name":"","type":"uint256","internalType":"uint256"}],"stateMutability":"view"},{"type":"function","name":"convertToAssets","inputs":[{"name":"shares","type":"uint256","internalType":"uint256"}],"outputs":[{"name":"","type":"uint256","internalType":"uint256"}],"stateMutability":"view"},{"type":"function","name":"convertToShares","inputs":[{"name":"assets","type":"uint256","internalType":"uint256"}],"outputs":[{"name":"","type":"uint256","internalType":"uint256"}],"stateMutability":"view"},{"type":"function","name":"createNewPool","inputs":[{"name":"newPool","type":"address","internalType":"contract AbstractPool"}],"outputs":[],"stateMutability":"nonpayable"},{"type":"function","name":"decimals","inputs":[],"outputs":[{"name":"","type":"uint8","internalType":"uint8"}],"stateMutability":"view"},{"type":"function","name":"deposit","inputs":[{"name":"","type":"uint256","internalType":"uint256"},{"name":"","type":"address","internalType":"address"}],"outputs":[{"name":"","type":"uint256","internalType":"uint256"}],"stateMutability":"pure"},{"type":"function","name":"deposit","inputs":[{"name":"poolAddress","type":"address","internalType":"address"},{"name":"assets","type":"uint256","internalType":"uint256"},{"name":"receiver","type":"address","internalType":"address"}],"outputs":[{"name":"","type":"uint256","internalType":"uint256"}],"stateMutability":"nonpayable"},{"type":"function","name":"getActivePools","inputs":[],"outputs":[{"name":"","type":"address[]","internalType":"contract AbstractPool[]"}],"stateMutability":"view"},{"type":"function","name":"getCumulativeDepositInPool","inputs":[{"name":"poolAddress","type":"address","internalType":"address"},{"name":"owner","type":"address","internalType":"address"},{"name":"startTime","type":"uint256","internalType":"uint256"},{"name":"endTime","type":"uint256","internalType":"uint256"}],"outputs":[{"name":"","type":"uint256","internalType":"uint256"}],"stateMutability":"view"},{"type":"function","name":"getCumulativeDepositInPool","inputs":[{"name":"poolAddress","type":"address","internalType":"address"},{"name":"owner","type":"address","internalType":"address"}],"outputs":[{"name":"","type":"uint256","internalType":"uint256"}],"stateMutability":"view"},{"type":"function","name":"getEvents","inputs":[{"name":"poolAddress","type":"address","internalType":"address"},{"name":"owner","type":"address","internalType":"address"}],"outputs":[{"name":"","type":"tuple[]","internalType":"struct TwabEvent[]","components":[{"name":"eventType","type":"uint8","internalType":"enum TwabEventType"},{"name":"timestamp","type":"uint256","internalType":"uint256"},{"name":"cumulativeBalance","type":"uint256","internalType":"uint256"},{"name":"balance","type":"uint256","internalType":"uint256"}]}],"stateMutability":"view"},{"type":"function","name":"getTotalDeposit","inputs":[{"name":"poolAddress","type":"address","internalType":"address"}],"outputs":[{"name":"","type":"uint256","internalType":"uint256"}],"stateMutability":"view"},{"type":"function","name":"maxDeposit","inputs":[{"name":"","type":"address","internalType":"address"}],"outputs":[{"name":"","type":"uint256","internalType":"uint256"}],"stateMutability":"view"},{"type":"function","name":"maxMint","inputs":[{"name":"","type":"address","internalType":"address"}],"outputs":[{"name":"","type":"uint256","internalType":"uint256"}],"stateMutability":"view"},{"type":"function","name":"maxRedeem","inputs":[{"name":"owner","type":"address","internalType":"address"}],"outputs":[{"name":"","type":"uint256","internalType":"uint256"}],"stateMutability":"view"},{"type":"function","name":"maxWithdraw","inputs":[{"name":"owner","type":"address","internalType":"address"}],"outputs":[{"name":"","type":"uint256","internalType":"uint256"}],"stateMutability":"view"},{"type":"function","name":"mint","inputs":[{"name":"shares","type":"uint256","internalType":"uint256"},{"name":"receiver","type":"address","internalType":"address"}],"outputs":[{"name":"","type":"uint256","internalType":"uint256"}],"stateMutability":"nonpayable"},{"type":"function","name":"name","inputs":[],"outputs":[{"name":"","type":"string","internalType":"string"}],"stateMutability":"view"},{"type":"function","name":"previewDeposit","inputs":[{"name":"assets","type":"uint256","internalType":"uint256"}],"outputs":[{"name":"","type":"uint256","internalType":"uint256"}],"stateMutability":"view"},{"type":"function","name":"previewMint","inputs":[{"name":"shares","type":"uint256","internalType":"uint256"}],"outputs":[{"name":"","type":"uint256","internalType":"uint256"}],"stateMutability":"view"},{"type":"function","name":"previewRedeem","inputs":[{"name":"shares","type":"uint256","internalType":"uint256"}],"outputs":[{"name":"","type":"uint256","internalType":"uint256"}],"stateMutability":"view"},{"type":"function","name":"previewWithdraw","inputs":[{"name":"assets","type":"uint256","internalType":"uint256"}],"outputs":[{"name":"","type":"uint256","internalType":"uint256"}],"stateMutability":"view"},{"type":"function","name":"redeem","inputs":[{"name":"shares","type":"uint256","internalType":"uint256"},{"name":"receiver","type":"address","internalType":"address"},{"name":"owner","type":"address","internalType":"address"}],"outputs":[{"name":"","type":"uint256","internalType":"uint256"}],"stateMutability":"nonpayable"},{"type":"function","name":"symbol","inputs":[],"outputs":[{"name":"","type":"string","internalType":"string"}],"stateMutability":"view"},{"type":"function","name":"totalAssets","inputs":[],"outputs":[{"name":"","type":"uint256","internalType":"uint256"}],"stateMutability":"view"},{"type":"function","name":"totalSupply","inputs":[],"outputs":[{"name":"","type":"uint256","internalType":"uint256"}],"stateMutability":"view"},{"type":"function","name":"transfer","inputs":[{"name":"to","type":"address","internalType":"address"},{"name":"value","type":"uint256","internalType":"uint256"}],"outputs":[{"name":"","type":"bool","internalType":"bool"}],"stateMutability":"nonpayable"},{"type":"function","name":"transferFrom","inputs":[{"name":"from","type":"address","internalType":"address"},{"name":"to","type":"address","internalType":"address"},{"name":"value","type":"uint256","internalType":"uint256"}],"outputs":[{"name":"","type":"bool","internalType":"bool"}],"stateMutability":"nonpayable"},{"type":"function","name":"withdraw","inputs":[{"name":"","type":"uint256","internalType":"uint256"},{"name":"","type":"address","internalType":"address"},{"name":"","type":"address","internalType":"address"}],"outputs":[{"name":"","type":"uint256","internalType":"uint256"}],"stateMutability":"pure"},{"type":"function","name":"withdraw","inputs":[{"name":"poolAddress","type":"address","internalType":"address"},{"name":"assets","type":"uint256","internalType":"uint256"},{"name":"receiver","type":"address","internalType":"address"},{"name":"owner","type":"address","internalType":"address"}],"outputs":[{"name":"","type":"uint256","internalType":"uint256"}],"stateMutability":"nonpayable"},{"type":"event","name":"Approval","inputs":[{"name":"owner","type":"address","indexed":true,"internalType":"address"},{"name":"spender","type":"address","indexed":true,"internalType":"address"},{"name":"value","type":"uint256","indexed":false,"internalType":"uint256"}],"anonymous":false},{"type":"event","name":"Deposit","inputs":[{"name":"sender","type":"address","indexed":true,"internalType":"address"},{"name":"owner","type":"address","indexed":true,"internalType":"address"},{"name":"assets","type":"uint256","indexed":false,"internalType":"uint256"},{"name":"shares","type":"uint256","indexed":false,"internalType":"uint256"}],"anonymous":false},{"type":"event","name":"Transfer","inputs":[{"name":"from","type":"address","indexed":true,"internalType":"address"},{"name":"to","type":"address","indexed":true,"internalType":"address"},{"name":"value","type":"uint256","indexed":false,"internalType":"uint256"}],"anonymous":false},{"type":"event","name":"Withdraw","inputs":[{"name":"sender","type":"address","indexed":true,"internalType":"address"},{"name":"receiver","type":"address","indexed":true,"internalType":"address"},{"name":"owner","type":"address","indexed":true,"internalType":"address"},{"name":"assets","type":"uint256","indexed":false,"internalType":"uint256"},{"name":"shares","type":"uint256","indexed":false,"internalType":"uint256"}],"anonymous":false},{"type":"error","name":"AddressEmptyCode","inputs":[{"name":"target","type":"address","internalType":"address"}]},{"type":"error","name":"AddressInsufficientBalance","inputs":[{"name":"account","type":"address","internalType":"address"}]},{"type":"error","name":"ERC20InsufficientAllowance","inputs":[{"name":"spender","type":"address","internalType":"address"},{"name":"allowance","type":"uint256","internalType":"uint256"},{"name":"needed","type":"uint256","internalType":"uint256"}]},{"type":"error","name":"ERC20InsufficientBalance","inputs":[{"name":"sender","type":"address","internalType":"address"},{"name":"balance","type":"uint256","internalType":"uint256"},{"name":"needed","type":"uint256","internalType":"uint256"}]},{"type":"error","name":"ERC20InvalidApprover","inputs":[{"name":"approver","type":"address","internalType":"address"}]},{"type":"error","name":"ERC20InvalidReceiver","inputs":[{"name":"receiver","type":"address","internalType":"address"}]},{"type":"error","name":"ERC20InvalidSender","inputs":[{"name":"sender","type":"address","internalType":"address"}]},{"type":"error","name":"ERC20InvalidSpender","inputs":[{"name":"spender","type":"address","internalType":"address"}]},{"type":"error","name":"ERC4626ExceededMaxDeposit","inputs":[{"name":"receiver","type":"address","internalType":"address"},{"name":"assets","type":"uint256","internalType":"uint256"},{"name":"max","type":"uint256","internalType":"uint256"}]},{"type":"error","name":"ERC4626ExceededMaxMint","inputs":[{"name":"receiver","type":"address","internalType":"address"},{"name":"shares","type":"uint256","internalType":"uint256"},{"name":"max","type":"uint256","internalType":"uint256"}]},{"type":"error","name":"ERC4626ExceededMaxRedeem","inputs":[{"name":"owner","type":"address","internalType":"address"},{"name":"shares","type":"uint256","internalType":"uint256"},{"name":"max","type":"uint256","internalType":"uint256"}]},{"type":"error","name":"ERC4626ExceededMaxWithdraw","inputs":[{"name":"owner","type":"address","internalType":"address"},{"name":"assets","type":"uint256","internalType":"uint256"},{"name":"max","type":"uint256","internalType":"uint256"}]},{"type":"error","name":"FailedInnerCall","inputs":[]},{"type":"error","name":"MathOverflowedMulDiv","inputs":[]},{"type":"error","name":"SafeERC20FailedOperation","inputs":[{"name":"token","type":"address","internalType":"address"}]}],"bytecode":{"object":"0x60c06040523480156200001157600080fd5b5060405162002294380380620022948339810160408190526200003491620001c9565b806040518060400160405280600e81526020016d5661756c74555344542d4161766560901b81525060405180604001604052806009815260200168555344542d4161766560b81b81525081600390816200008f9190620002a2565b5060046200009e8282620002a2565b505050600080620000b583620000e460201b60201c565b9150915081620000c7576012620000c9565b805b60ff1660a05250506001600160a01b031660805250620003b9565b60408051600481526024810182526020810180516001600160e01b031663313ce56760e01b17905290516000918291829182916001600160a01b038716916200012d916200036e565b600060405180830381855afa9150503d80600081146200016a576040519150601f19603f3d011682016040523d82523d6000602084013e6200016f565b606091505b50915091508180156200018457506020815110155b15620001bc57600081806020019051810190620001a291906200039f565b905060ff8111620001ba576001969095509350505050565b505b5060009485945092505050565b600060208284031215620001dc57600080fd5b81516001600160a01b0381168114620001f457600080fd5b9392505050565b634e487b7160e01b600052604160045260246000fd5b600181811c908216806200022657607f821691505b6020821081036200024757634e487b7160e01b600052602260045260246000fd5b50919050565b601f8211156200029d576000816000526020600020601f850160051c81016020861015620002785750805b601f850160051c820191505b81811015620002995782815560010162000284565b5050505b505050565b81516001600160401b03811115620002be57620002be620001fb565b620002d681620002cf845462000211565b846200024d565b602080601f8311600181146200030e5760008415620002f55750858301515b600019600386901b1c1916600185901b17855562000299565b600085815260208120601f198616915b828110156200033f578886015182559484019460019091019084016200031e565b50858210156200035e5787850151600019600388901b60f8161c191681555b5050505050600190811b01905550565b6000825160005b8181101562000391576020818601810151858301520162000375565b506000920191825250919050565b600060208284031215620003b257600080fd5b5051919050565b60805160a051611ea0620003f460003960006106da0152600081816103300152818161056a01528181610e1a0152610eda0152611ea06000f3fe608060405234801561001057600080fd5b50600436106101fb5760003560e01c80638ec083541161011a578063ba087652116100ad578063d905777e1161007c578063d905777e146104a4578063dd62ed3e146104b7578063dfcd412e146104f0578063ef8b30f71461047e578063f45346dc1461050357600080fd5b8063ba0876521461046b578063c63d75b61461035a578063c6e6f5921461047e578063ce96cb771461049157600080fd5b8063a9059cbb116100e9578063a9059cbb14610424578063aef9c24114610437578063b3d7f6b91461044a578063b460af941461045d57600080fd5b80638ec08354146103d457806394bf804d146103e957806395d89b41146103fc578063a0169ea41461040457600080fd5b806323b872dd116101925780634cdad506116101615780634cdad506146102435780636e553f651461036f57806370a0823114610382578063857184d1146103ab57600080fd5b806323b872dd146102f6578063313ce5671461030957806338d52e0f14610323578063402d267d1461035a57600080fd5b8063095ea7b3116101ce578063095ea7b3146102565780630a28a4771461027957806318160ddd1461028c5780631a9b688e1461029457600080fd5b8063015678431461020057806301e1d1141461022657806306fdde031461022e57806307a2d13a14610243575b600080fd5b61021361020e36600461183f565b610516565b6040519081526020015b60405180910390f35b610213610552565b6102366105e2565b60405161021d91906118a9565b6102136102513660046118dc565b610674565b6102696102643660046118f5565b610687565b604051901515815260200161021d565b6102136102873660046118dc565b61069f565b600254610213565b6102f46102a2366004611921565b600780546001810182556000919091527fa66cc928b5edb82af9bd49922954155ab7b0942694bea4ce44661d9a8736c6880180546001600160a01b0319166001600160a01b0392909216919091179055565b005b61026961030436600461193e565b6106ac565b6103116106d2565b60405160ff909116815260200161021d565b6040516001600160a01b037f000000000000000000000000000000000000000000000000000000000000000016815260200161021d565b610213610368366004611921565b5060001990565b61021361037d36600461197f565b6106fe565b610213610390366004611921565b6001600160a01b031660009081526020819052604090205490565b6102136103b9366004611921565b6001600160a01b031660009081526006602052604090205490565b6103dc610766565b60405161021d91906119af565b6102136103f736600461197f565b6107c7565b6102366107ed565b6104176104123660046119fc565b6107fc565b60405161021d9190611a40565b6102696104323660046118f5565b6108c9565b6102136104453660046119fc565b6108d7565b6102136104583660046118dc565b6109a6565b61021361037d366004611ac2565b610213610479366004611ac2565b6109b3565b61021361048c3660046118dc565b610a0b565b61021361049f366004611921565b610a18565b6102136104b2366004611921565b610a3c565b6102136104c53660046119fc565b6001600160a01b03918216600090815260016020908152604080832093909416825291909152205490565b6102136104fe366004611b04565b610a5a565b610213610511366004611b57565b610bc4565b6001600160a01b0380851660009081526005602090815260408083209387168352929052908120610548818585610caf565b9695505050505050565b6040516370a0823160e01b81523060048201526000907f00000000000000000000000000000000000000000000000000000000000000006001600160a01b0316906370a0823190602401602060405180830381865afa1580156105b9573d6000803e3d6000fd5b505050506040513d601f19601f820116820180604052508101906105dd9190611b8e565b905090565b6060600380546105f190611ba7565b80601f016020809104026020016040519081016040528092919081815260200182805461061d90611ba7565b801561066a5780601f1061063f5761010080835404028352916020019161066a565b820191906000526020600020905b81548152906001019060200180831161064d57829003601f168201915b5050505050905090565b6000610681826000610ccf565b92915050565b600033610695818585610d09565b5060019392505050565b6000610681826001610d1b565b6000336106ba858285610d4b565b6106c5858585610db6565b60019150505b9392505050565b60006105dd817f0000000000000000000000000000000000000000000000000000000000000000611bf7565b60405162461bcd60e51b815260206004820152602f60248201527f546869732066756e6374696f6e2063616e6e6f742062652063616c6c6564206f60448201526e1b881d1a1a5cc818dbdb9d1c9858dd608a1b60648201526000906084015b60405180910390fd5b6060600780548060200260200160405190810160405280929190818152602001828054801561066a57602002820191906000526020600020905b81546001600160a01b031681526001909101906020018083116107a0575050505050905090565b600060001960006107d7856109a6565b90506107e533858388610e15565b949350505050565b6060600480546105f190611ba7565b6001600160a01b0380831660009081526005602090815260408083209385168352928152828220805484518184028101840190955280855260609493919290919084015b828210156108bd576000848152602090206040805160808101909152600484029091018054829060ff16600181111561087b5761087b611a2a565b600181111561088c5761088c611a2a565b8152602001600182015481526020016002820154815260200160038201548152505081526020019060010190610840565b50505050905092915050565b600033610695818585610db6565b6000808390506107e58484836001600160a01b031663c828371e6040518163ffffffff1660e01b8152600401602060405180830381865afa158015610920573d6000803e3d6000fd5b505050506040513d601f19601f820116820180604052508101906109449190611b8e565b846001600160a01b031663439f5ac26040518163ffffffff1660e01b8152600401602060405180830381865afa158015610982573d6000803e3d6000fd5b505050506040513d601f19601f8201168201806040525081019061020e9190611b8e565b6000610681826001610ccf565b6000806109bf83610a3c565b9050808511156109e857828582604051632e52afbb60e21b815260040161075d93929190611c10565b60006109f386610674565b9050610a02338686848a610ea7565b95945050505050565b6000610681826000610d1b565b6001600160a01b038116600090815260208190526040812054610681906000610ccf565b6001600160a01b038116600090815260208190526040812054610681565b600084610a6781856108d7565b6001600160a01b03871660009081526006602052604081208054909190610a8f908490611c31565b909155505084610ae15760405162461bcd60e51b815260206004820152601b60248201527f63616e206e6f74207769746864726177207a65726f2061737365740000000000604482015260640161075d565b6000610aec84610a18565b905080861115610b1557838682604051633fa733bb60e21b815260040161075d93929190611c10565b6000610b208761069f565b9050610b2f3387878a85610ea7565b610b81600142610b54886001600160a01b031660009081526020819052604090205490565b6001600160a01b03808d166000908152600560209081526040808320938d16835292905220929190610f67565b610b8b88876108d7565b6001600160a01b03891660009081526006602052604081208054909190610bb3908490611c44565b909155509098975050505050505050565b600083610bd181846108d7565b6001600160a01b03861660009081526006602052604081208054909190610bf9908490611c31565b9091555060001990506000610c0d86610a0b565b9050610c1b33868884610e15565b610c6d600042610c40886001600160a01b031660009081526020819052604090205490565b6001600160a01b03808c166000908152600560209081526040808320938d16835292905220929190610f67565b610c7787866108d7565b6001600160a01b03881660009081526006602052604081208054909190610c9f908490611c44565b9091555090979650505050505050565b6000610cbb8484611171565b610cc58584611171565b6107e59190611c31565b60006106cb610cdc610552565b610ce7906001611c44565b610cf36000600a611d3b565b600254610d009190611c44565b8591908561121b565b610d168383836001611260565b505050565b60006106cb610d2b82600a611d3b565b600254610d389190611c44565b610d40610552565b610d00906001611c44565b6001600160a01b038381166000908152600160209081526040808320938616835292905220546000198114610db05781811015610da157828183604051637dc7a0d960e11b815260040161075d93929190611c10565b610db084848484036000611260565b50505050565b6001600160a01b038316610de057604051634b637e8f60e11b81526000600482015260240161075d565b6001600160a01b038216610e0a5760405163ec442f0560e01b81526000600482015260240161075d565b610d16838383611327565b610e417f000000000000000000000000000000000000000000000000000000000000000085308561143e565b610e4b83826114a5565b826001600160a01b0316846001600160a01b03167fdcbc1c05240f31ff3ad067ef1ee35ce4997762752e3a095284754544f4c709d78484604051610e99929190918252602082015260400190565b60405180910390a350505050565b826001600160a01b0316856001600160a01b031614610ecb57610ecb838683610d4b565b610ed583826114df565b610f007f00000000000000000000000000000000000000000000000000000000000000008584611515565b826001600160a01b0316846001600160a01b0316866001600160a01b03167ffbde797d201c681b91056529119e0b02407c7bb96a4a2c75c01fc9667232c8db8585604051610f58929190918252602082015260400190565b60405180910390a45050505050565b835460000361100957836040518060800160405280856001811115610f8e57610f8e611a2a565b81526020808201869052600060408301819052606090920185905283546001818101865594835291208251600490920201805492939092839160ff19909116908381811115610fdf57610fdf611a2a565b02179055506020820151816001015560408201518160020155606082015181600301555050610db0565b8354600090859061101c90600190611c31565b8154811061102c5761102c611d4a565b9060005260206000209060040201600201549050600085600187805490506110549190611c31565b8154811061106457611064611d4a565b90600052602060002090600402016003015490506000866001888054905061108c9190611c31565b8154811061109c5761109c611d4a565b6000918252602082206001600490920201015491506110bb8287611c31565b6110c59084611d60565b6110cf9085611c44565b90508760405180608001604052808960018111156110ef576110ef611a2a565b815260208082018a905260408201859052606090910188905282546001818101855560009485529190932082516004909402018054929390929091839160ff191690838181111561114257611142611a2a565b021790555060208201518160010155604082015181600201556060820151816003015550505050505050505050565b60008061117e8484611546565b90508019611190576000915050610681565b8381815481106111a2576111a2611d4a565b906000526020600020906004020160010154836111bf9190611c31565b8482815481106111d1576111d1611d4a565b9060005260206000209060040201600301546111ed9190611d60565b8482815481106111ff576111ff611d4a565b9060005260206000209060040201600201546107e59190611c44565b6000806112298686866115db565b90506112348361169f565b801561125057506000848061124b5761124b611d77565b868809115b15610a0257610548600182611c44565b6001600160a01b03841661128a5760405163e602df0560e01b81526000600482015260240161075d565b6001600160a01b0383166112b457604051634a1406b160e11b81526000600482015260240161075d565b6001600160a01b0380851660009081526001602090815260408083209387168352929052208290558015610db057826001600160a01b0316846001600160a01b03167f8c5be1e5ebec7d5bd14f71427d1e84f3dd0314c0f7b2291e5b200ac8c7c3b92584604051610e9991815260200190565b6001600160a01b0383166113525780600260008282546113479190611c44565b909155506113b19050565b6001600160a01b038316600090815260208190526040902054818110156113925783818360405163391434e360e21b815260040161075d93929190611c10565b6001600160a01b03841660009081526020819052604090209082900390555b6001600160a01b0382166113cd576002805482900390556113ec565b6001600160a01b03821660009081526020819052604090208054820190555b816001600160a01b0316836001600160a01b03167fddf252ad1be2c89b69c2b068fc378daa952ba7f163c4a11628f55a4df523b3ef8360405161143191815260200190565b60405180910390a3505050565b6040516001600160a01b038481166024830152838116604483015260648201839052610db09186918216906323b872dd906084015b604051602081830303815290604052915060e01b6020820180516001600160e01b0383818316178352505050506116cc565b6001600160a01b0382166114cf5760405163ec442f0560e01b81526000600482015260240161075d565b6114db60008383611327565b5050565b6001600160a01b03821661150957604051634b637e8f60e11b81526000600482015260240161075d565b6114db82600083611327565b6040516001600160a01b03838116602483015260448201839052610d1691859182169063a9059cbb90606401611473565b815460009060001990829061155d90600190611d8d565b90505b808212156115d357600060026115768484611db4565b611581906001611db4565b61158b9190611ddc565b9050848682815481106115a0576115a0611d4a565b906000526020600020906004020160010154116115bf578092506115cd565b6115ca600182611d8d565b91505b50611560565b509392505050565b60008383028160001985870982811083820303915050806000036116125783828161160857611608611d77565b04925050506106cb565b8084116116325760405163227bc15360e01b815260040160405180910390fd5b6000848688096000868103871696879004966002600389028118808a02820302808a02820302808a02820302808a02820302808a02820302808a02909103029181900381900460010186841190950394909402919094039290920491909117919091029150509392505050565b600060028260038111156116b5576116b5611a2a565b6116bf9190611e0a565b60ff166001149050919050565b60006116e16001600160a01b0384168361172f565b905080516000141580156117065750808060200190518101906117049190611e2c565b155b15610d1657604051635274afe760e01b81526001600160a01b038416600482015260240161075d565b60606106cb8383600084600080856001600160a01b031684866040516117559190611e4e565b60006040518083038185875af1925050503d8060008114611792576040519150601f19603f3d011682016040523d82523d6000602084013e611797565b606091505b50915091506105488683836060826117b7576117b2826117fe565b6106cb565b81511580156117ce57506001600160a01b0384163b155b156117f757604051639996b31560e01b81526001600160a01b038516600482015260240161075d565b50806106cb565b80511561180e5780518082602001fd5b604051630a12f52160e11b815260040160405180910390fd5b50565b6001600160a01b038116811461182757600080fd5b6000806000806080858703121561185557600080fd5b84356118608161182a565b935060208501356118708161182a565b93969395505050506040820135916060013590565b60005b838110156118a0578181015183820152602001611888565b50506000910152565b60208152600082518060208401526118c8816040850160208701611885565b601f01601f19169190910160400192915050565b6000602082840312156118ee57600080fd5b5035919050565b6000806040838503121561190857600080fd5b82356119138161182a565b946020939093013593505050565b60006020828403121561193357600080fd5b81356106cb8161182a565b60008060006060848603121561195357600080fd5b833561195e8161182a565b9250602084013561196e8161182a565b929592945050506040919091013590565b6000806040838503121561199257600080fd5b8235915060208301356119a48161182a565b809150509250929050565b6020808252825182820181905260009190848201906040850190845b818110156119f05783516001600160a01b0316835292840192918401916001016119cb565b50909695505050505050565b60008060408385031215611a0f57600080fd5b8235611a1a8161182a565b915060208301356119a48161182a565b634e487b7160e01b600052602160045260246000fd5b60208082528251828201819052600091906040908185019086840185805b83811015611ab4578251805160028110611a8657634e487b7160e01b84526021600452602484fd5b8652808801518887015286810151878701526060908101519086015260809094019391860191600101611a5e565b509298975050505050505050565b600080600060608486031215611ad757600080fd5b833592506020840135611ae98161182a565b91506040840135611af98161182a565b809150509250925092565b60008060008060808587031215611b1a57600080fd5b8435611b258161182a565b9350602085013592506040850135611b3c8161182a565b91506060850135611b4c8161182a565b939692955090935050565b600080600060608486031215611b6c57600080fd5b8335611b778161182a565b9250602084013591506040840135611af98161182a565b600060208284031215611ba057600080fd5b5051919050565b600181811c90821680611bbb57607f821691505b602082108103611bdb57634e487b7160e01b600052602260045260246000fd5b50919050565b634e487b7160e01b600052601160045260246000fd5b60ff818116838216019081111561068157610681611be1565b6001600160a01b039390931683526020830191909152604082015260600190565b8181038181111561068157610681611be1565b8082018082111561068157610681611be1565b600181815b80851115611c92578160001904821115611c7857611c78611be1565b80851615611c8557918102915b93841c9390800290611c5c565b509250929050565b600082611ca957506001610681565b81611cb657506000610681565b8160018114611ccc5760028114611cd657611cf2565b6001915050610681565b60ff841115611ce757611ce7611be1565b50506001821b610681565b5060208310610133831016604e8410600b8410161715611d15575081810a610681565b611d1f8383611c57565b8060001904821115611d3357611d33611be1565b029392505050565b60006106cb60ff841683611c9a565b634e487b7160e01b600052603260045260246000fd5b808202811582820484141761068157610681611be1565b634e487b7160e01b600052601260045260246000fd5b8181036000831280158383131683831282161715611dad57611dad611be1565b5092915050565b8082018281126000831280158216821582161715611dd457611dd4611be1565b505092915050565b600082611deb57611deb611d77565b600160ff1b821460001984141615611e0557611e05611be1565b500590565b600060ff831680611e1d57611e1d611d77565b8060ff84160691505092915050565b600060208284031215611e3e57600080fd5b815180151581146106cb57600080fd5b60008251611e60818460208701611885565b919091019291505056fea264697066735822122042a224d981f407f208194178d2f3d1bb4de21c2179d4fcac569f9763dd13467264736f6c63430008180033","linkReferences":{}},"methodIdentifiers":{"allowance(address,address)":"dd62ed3e","approve(address,uint256)":"095ea7b3","asset()":"38d52e0f","balanceOf(address)":"70a08231","convertToAssets(uint256)":"07a2d13a","convertToShares(uint256)":"c6e6f592","createNewPool(address)":"1a9b688e","decimals()":"313ce567","deposit(address,uint256,address)":"f45346dc","deposit(uint256,address)":"6e553f65","getActivePools()":"8ec08354","getCumulativeDepositInPool(address,address)":"aef9c241","getCumulativeDepositInPool(address,address,uint256,uint256)":"01567843","getEvents(address,address)":"a0169ea4","getTotalDeposit(address)":"857184d1","maxDeposit(address)":"402d267d","maxMint(address)":"c63d75b6","maxRedeem(address)":"d905777e","maxWithdraw(address)":"ce96cb77","mint(uint256,address)":"94bf804d","name()":"06fdde03","previewDeposit(uint256)":"ef8b30f7","previewMint(uint256)":"b3d7f6b9","previewRedeem(uint256)":"4cdad506","previewWithdraw(uint256)":"0a28a477","redeem(uint256,address,address)":"ba087652","symbol()":"95d89b41","totalAssets()":"01e1d114","totalSupply()":"18160ddd","transfer(address,uint256)":"a9059cbb","transferFrom(address,address,uint256)":"23b872dd","withdraw(address,uint256,address,address)":"dfcd412e","withdraw(uint256,address,address)":"b460af94"},"id":45}